{
  "contractName": "OASIS",
  "abi": [
    {
      "inputs": [],
      "payable": false,
      "stateMutability": "nonpayable",
      "type": "constructor"
    },
    {
      "constant": true,
      "inputs": [],
      "name": "totalAccounts",
      "outputs": [
        {
          "internalType": "uint256",
          "name": "",
          "type": "uint256"
        }
      ],
      "payable": false,
      "stateMutability": "view",
      "type": "function"
    },
    {
      "constant": false,
      "inputs": [
        {
          "internalType": "string",
          "name": "userid",
          "type": "string"
        },
        {
          "internalType": "string",
          "name": "name",
          "type": "string"
        },
        {
          "internalType": "string",
          "name": "providerkey",
          "type": "string"
        },
        {
          "internalType": "string",
          "name": "password",
          "type": "string"
        },
        {
          "internalType": "string",
          "name": "email",
          "type": "string"
        },
        {
          "internalType": "string",
          "name": "title",
          "type": "string"
        },
        {
          "internalType": "string",
          "name": "firstname",
          "type": "string"
        },
        {
          "internalType": "string",
          "name": "lastname",
          "type": "string"
        },
        {
          "internalType": "string",
          "name": "dob",
          "type": "string"
        },
        {
          "internalType": "string",
          "name": "playeraddr",
          "type": "string"
        },
        {
          "internalType": "uint32",
          "name": "karma",
          "type": "uint32"
        }
      ],
      "name": "createAccount",
      "outputs": [
        {
          "internalType": "uint256",
          "name": "",
          "type": "uint256"
        }
      ],
      "payable": false,
      "stateMutability": "nonpayable",
      "type": "function"
    },
    {
      "constant": false,
      "inputs": [
        {
          "internalType": "string",
          "name": "userid",
          "type": "string"
        },
        {
          "internalType": "string",
          "name": "name",
          "type": "string"
        },
        {
          "internalType": "string",
          "name": "providerkey",
          "type": "string"
        },
        {
          "internalType": "string",
          "name": "password",
          "type": "string"
        },
        {
          "internalType": "string",
          "name": "email",
          "type": "string"
        },
        {
          "internalType": "string",
          "name": "title",
          "type": "string"
        },
        {
          "internalType": "string",
          "name": "firstname",
          "type": "string"
        },
        {
          "internalType": "string",
          "name": "lastname",
          "type": "string"
        },
        {
          "internalType": "string",
          "name": "dob",
          "type": "string"
        },
        {
          "internalType": "string",
          "name": "playeraddr",
          "type": "string"
        },
        {
          "internalType": "uint32",
          "name": "karma",
          "type": "uint32"
        }
      ],
      "name": "updateAccount",
      "outputs": [
        {
          "internalType": "bool",
          "name": "",
          "type": "bool"
        }
      ],
      "payable": false,
      "stateMutability": "nonpayable",
      "type": "function"
    },
    {
      "constant": false,
      "inputs": [
        {
          "internalType": "string",
          "name": "userid",
          "type": "string"
        }
      ],
      "name": "deleteAccount",
      "outputs": [
        {
          "internalType": "bool",
          "name": "",
          "type": "bool"
        }
      ],
      "payable": false,
      "stateMutability": "nonpayable",
      "type": "function"
    },
    {
      "constant": true,
      "inputs": [
        {
          "internalType": "string",
          "name": "userid",
          "type": "string"
        }
      ],
      "name": "getAccountParameter",
      "outputs": [
        {
          "components": [
            {
              "internalType": "string",
              "name": "userid",
              "type": "string"
            },
            {
              "internalType": "string",
              "name": "name",
              "type": "string"
            },
            {
              "internalType": "string",
              "name": "providerkey",
              "type": "string"
            },
            {
              "internalType": "string",
              "name": "password",
              "type": "string"
            },
            {
              "internalType": "string",
              "name": "email",
              "type": "string"
            },
            {
              "internalType": "string",
              "name": "title",
              "type": "string"
            },
            {
              "internalType": "string",
              "name": "firstname",
              "type": "string"
            },
            {
              "internalType": "string",
              "name": "lastname",
              "type": "string"
            },
            {
              "internalType": "string",
              "name": "dob",
              "type": "string"
            },
            {
              "internalType": "string",
              "name": "playeraddr",
              "type": "string"
            },
            {
              "internalType": "uint32",
              "name": "karma",
              "type": "uint32"
            }
          ],
          "internalType": "struct OASIS.account",
          "name": "",
          "type": "tuple"
        }
      ],
      "payable": false,
      "stateMutability": "view",
      "type": "function"
    },
    {
      "constant": true,
      "inputs": [],
      "name": "getAccountCount",
      "outputs": [
        {
          "internalType": "uint256",
          "name": "count",
          "type": "uint256"
        }
      ],
      "payable": false,
      "stateMutability": "view",
      "type": "function"
    },
    {
      "constant": true,
      "inputs": [
        {
          "internalType": "string",
          "name": "first",
          "type": "string"
        },
        {
          "internalType": "string",
          "name": "second",
          "type": "string"
        }
      ],
      "name": "compareString",
      "outputs": [
        {
          "internalType": "bool",
          "name": "",
          "type": "bool"
        }
      ],
      "payable": false,
      "stateMutability": "pure",
      "type": "function"
    }
  ],
  "bytecode": "0x608060405234801561001057600080fd5b506000600181905550611ba2806100286000396000f3fe608060405234801561001057600080fd5b506004361061007d5760003560e01c8063a98e4e771161005b578063a98e4e7714610100578063bc0b59d71461011e578063c7a1cbf81461014e578063d5e363f91461017e5761007d565b806358451f971461008257806363311c7a146100a057806375b83187146100d0575b600080fd5b61008a6101ae565b6040516100979190611a29565b60405180910390f35b6100ba60048036036100b59190810190611630565b6101b4565b6040516100c79190611a29565b60405180910390f35b6100ea60048036036100e591908101906115c4565b6103b6565b6040516100f791906119ec565b60405180910390f35b61010861040f565b6040516101159190611a29565b60405180910390f35b61013860048036036101339190810190611630565b61041b565b60405161014591906119ec565b60405180910390f35b61016860048036036101639190810190611583565b610726565b6040516101759190611a07565b60405180910390f35b61019860048036036101939190810190611583565b610ecf565b6040516101a591906119ec565b60405180910390f35b60015481565b60006101be6112c6565b6040518061016001604052808e81526020018d81526020018c81526020018b81526020018a81526020018981526020018881526020018781526020018681526020018581526020018463ffffffff1681525090506000819080600181540180825580915050906001820390600052602060002090600b020160009091929091909150600082015181600001908051906020019061025c929190611326565b506020820151816001019080519060200190610279929190611326565b506040820151816002019080519060200190610296929190611326565b5060608201518160030190805190602001906102b3929190611326565b5060808201518160040190805190602001906102d0929190611326565b5060a08201518160050190805190602001906102ed929190611326565b5060c082015181600601908051906020019061030a929190611326565b5060e0820151816007019080519060200190610327929190611326565b50610100820151816008019080519060200190610345929190611326565b50610120820151816009019080519060200190610363929190611326565b5061014082015181600a0160006101000a81548163ffffffff021916908363ffffffff1602179055505050506001600081548092919060010191905055506001549150509b9a5050505050505050505050565b6000816040516020016103c991906119d5565b60405160208183030381529060405280519060200120836040516020016103f091906119d5565b6040516020818303038152906040528051906020012014905092915050565b60008080549050905090565b600080600090505b600154811015610711576104ed6000828154811061043d57fe5b90600052602060002090600b02016000018054600181600116156101000203166002900480601f0160208091040260200160405190810160405280929190818152602001828054600181600116156101000203166002900480156104e25780601f106104b7576101008083540402835291602001916104e2565b820191906000526020600020905b8154815290600101906020018083116104c557829003601f168201915b50505050508e6103b6565b15610704578b6000828154811061050057fe5b90600052602060002090600b020160010190805190602001906105249291906113a6565b508a6000828154811061053357fe5b90600052602060002090600b020160020190805190602001906105579291906113a6565b50896000828154811061056657fe5b90600052602060002090600b0201600301908051906020019061058a9291906113a6565b50886000828154811061059957fe5b90600052602060002090600b020160040190805190602001906105bd9291906113a6565b5087600082815481106105cc57fe5b90600052602060002090600b020160050190805190602001906105f09291906113a6565b5086600082815481106105ff57fe5b90600052602060002090600b020160060190805190602001906106239291906113a6565b50856000828154811061063257fe5b90600052602060002090600b020160070190805190602001906106569291906113a6565b50846000828154811061066557fe5b90600052602060002090600b020160080190805190602001906106899291906113a6565b50836000828154811061069857fe5b90600052602060002090600b020160090190805190602001906106bc9291906113a6565b5082600082815481106106cb57fe5b90600052602060002090600b0201600a0160006101000a81548163ffffffff021916908363ffffffff1602179055506001915050610717565b8080600101915050610423565b50600090505b9b9a5050505050505050505050565b61072e6112c6565b60006001541161073d57600080fd5b60008090505b600154811015610ec85761080d6000828154811061075d57fe5b90600052602060002090600b02016000018054600181600116156101000203166002900480601f0160208091040260200160405190810160405280929190818152602001828054600181600116156101000203166002900480156108025780601f106107d757610100808354040283529160200191610802565b820191906000526020600020905b8154815290600101906020018083116107e557829003601f168201915b5050505050846103b6565b15610ebb576000818154811061081f57fe5b90600052602060002090600b020160405180610160016040529081600082018054600181600116156101000203166002900480601f0160208091040260200160405190810160405280929190818152602001828054600181600116156101000203166002900480156108d25780601f106108a7576101008083540402835291602001916108d2565b820191906000526020600020905b8154815290600101906020018083116108b557829003601f168201915b50505050508152602001600182018054600181600116156101000203166002900480601f0160208091040260200160405190810160405280929190818152602001828054600181600116156101000203166002900480156109745780601f1061094957610100808354040283529160200191610974565b820191906000526020600020905b81548152906001019060200180831161095757829003601f168201915b50505050508152602001600282018054600181600116156101000203166002900480601f016020809104026020016040519081016040528092919081815260200182805460018160011615610100020316600290048015610a165780601f106109eb57610100808354040283529160200191610a16565b820191906000526020600020905b8154815290600101906020018083116109f957829003601f168201915b50505050508152602001600382018054600181600116156101000203166002900480601f016020809104026020016040519081016040528092919081815260200182805460018160011615610100020316600290048015610ab85780601f10610a8d57610100808354040283529160200191610ab8565b820191906000526020600020905b815481529060010190602001808311610a9b57829003601f168201915b50505050508152602001600482018054600181600116156101000203166002900480601f016020809104026020016040519081016040528092919081815260200182805460018160011615610100020316600290048015610b5a5780601f10610b2f57610100808354040283529160200191610b5a565b820191906000526020600020905b815481529060010190602001808311610b3d57829003601f168201915b50505050508152602001600582018054600181600116156101000203166002900480601f016020809104026020016040519081016040528092919081815260200182805460018160011615610100020316600290048015610bfc5780601f10610bd157610100808354040283529160200191610bfc565b820191906000526020600020905b815481529060010190602001808311610bdf57829003601f168201915b50505050508152602001600682018054600181600116156101000203166002900480601f016020809104026020016040519081016040528092919081815260200182805460018160011615610100020316600290048015610c9e5780601f10610c7357610100808354040283529160200191610c9e565b820191906000526020600020905b815481529060010190602001808311610c8157829003601f168201915b50505050508152602001600782018054600181600116156101000203166002900480601f016020809104026020016040519081016040528092919081815260200182805460018160011615610100020316600290048015610d405780601f10610d1557610100808354040283529160200191610d40565b820191906000526020600020905b815481529060010190602001808311610d2357829003601f168201915b50505050508152602001600882018054600181600116156101000203166002900480601f016020809104026020016040519081016040528092919081815260200182805460018160011615610100020316600290048015610de25780601f10610db757610100808354040283529160200191610de2565b820191906000526020600020905b815481529060010190602001808311610dc557829003601f168201915b50505050508152602001600982018054600181600116156101000203166002900480601f016020809104026020016040519081016040528092919081815260200182805460018160011615610100020316600290048015610e845780601f10610e5957610100808354040283529160200191610e84565b820191906000526020600020905b815481529060010190602001808311610e6757829003601f168201915b50505050508152602001600a820160009054906101000a900463ffffffff1663ffffffff1663ffffffff1681525050915050610eca565b8080600101915050610743565b505b919050565b60008060015411610edf57600080fd5b60008090505b6001548110156112bb57610faf60008281548110610eff57fe5b90600052602060002090600b02016000018054600181600116156101000203166002900480601f016020809104026020016040519081016040528092919081815260200182805460018160011615610100020316600290048015610fa45780601f10610f7957610100808354040283529160200191610fa4565b820191906000526020600020905b815481529060010190602001808311610f8757829003601f168201915b5050505050846103b6565b156112ae576000600180540381548110610fc557fe5b90600052602060002090600b020160008281548110610fe057fe5b90600052602060002090600b020160008201816000019080546001816001161561010002031660029004611015929190611426565b506001820181600101908054600181600116156101000203166002900461103d929190611426565b5060028201816002019080546001816001161561010002031660029004611065929190611426565b506003820181600301908054600181600116156101000203166002900461108d929190611426565b50600482018160040190805460018160011615610100020316600290046110b5929190611426565b50600582018160050190805460018160011615610100020316600290046110dd929190611426565b5060068201816006019080546001816001161561010002031660029004611105929190611426565b506007820181600701908054600181600116156101000203166002900461112d929190611426565b5060088201816008019080546001816001161561010002031660029004611155929190611426565b506009820181600901908054600181600116156101000203166002900461117d929190611426565b50600a820160009054906101000a900463ffffffff1681600a0160006101000a81548163ffffffff021916908363ffffffff16021790555090505060006001805403815481106111c957fe5b90600052602060002090600b0201600080820160006111e891906114ad565b6001820160006111f891906114ad565b60028201600061120891906114ad565b60038201600061121891906114ad565b60048201600061122891906114ad565b60058201600061123891906114ad565b60068201600061124891906114ad565b60078201600061125891906114ad565b60088201600061126891906114ad565b60098201600061127891906114ad565b600a820160006101000a81549063ffffffff021916905550506001600081548092919060019003919050555060019150506112c1565b8080600101915050610ee5565b50600090505b919050565b60405180610160016040528060608152602001606081526020016060815260200160608152602001606081526020016060815260200160608152602001606081526020016060815260200160608152602001600063ffffffff1681525090565b828054600181600116156101000203166002900490600052602060002090601f016020900481019282601f1061136757805160ff1916838001178555611395565b82800160010185558215611395579182015b82811115611394578251825591602001919060010190611379565b5b5090506113a291906114f5565b5090565b828054600181600116156101000203166002900490600052602060002090601f016020900481019282601f106113e757805160ff1916838001178555611415565b82800160010185558215611415579182015b828111156114145782518255916020019190600101906113f9565b5b50905061142291906114f5565b5090565b828054600181600116156101000203166002900490600052602060002090601f016020900481019282601f1061145f578054855561149c565b8280016001018555821561149c57600052602060002091601f016020900482015b8281111561149b578254825591600101919060010190611480565b5b5090506114a991906114f5565b5090565b50805460018160011615610100020316600290046000825580601f106114d357506114f2565b601f0160209004906000526020600020908101906114f191906114f5565b5b50565b61151791905b808211156115135760008160009055506001016114fb565b5090565b90565b600082601f83011261152b57600080fd5b813561153e61153982611a71565b611a44565b9150808252602083016020830185838301111561155a57600080fd5b611565838284611af5565b50505092915050565b60008135905061157d81611b48565b92915050565b60006020828403121561159557600080fd5b600082013567ffffffffffffffff8111156115af57600080fd5b6115bb8482850161151a565b91505092915050565b600080604083850312156115d757600080fd5b600083013567ffffffffffffffff8111156115f157600080fd5b6115fd8582860161151a565b925050602083013567ffffffffffffffff81111561161a57600080fd5b6116268582860161151a565b9150509250929050565b60008060008060008060008060008060006101608c8e03121561165257600080fd5b60008c013567ffffffffffffffff81111561166c57600080fd5b6116788e828f0161151a565b9b505060208c013567ffffffffffffffff81111561169557600080fd5b6116a18e828f0161151a565b9a505060408c013567ffffffffffffffff8111156116be57600080fd5b6116ca8e828f0161151a565b99505060608c013567ffffffffffffffff8111156116e757600080fd5b6116f38e828f0161151a565b98505060808c013567ffffffffffffffff81111561171057600080fd5b61171c8e828f0161151a565b97505060a08c013567ffffffffffffffff81111561173957600080fd5b6117458e828f0161151a565b96505060c08c013567ffffffffffffffff81111561176257600080fd5b61176e8e828f0161151a565b95505060e08c013567ffffffffffffffff81111561178b57600080fd5b6117978e828f0161151a565b9450506101008c013567ffffffffffffffff8111156117b557600080fd5b6117c18e828f0161151a565b9350506101208c013567ffffffffffffffff8111156117df57600080fd5b6117eb8e828f0161151a565b9250506101406117fd8e828f0161156e565b9150509295989b509295989b9093969950565b61181981611acf565b82525050565b600061182a82611aa8565b6118348185611ac4565b9350611844818560208601611b04565b80840191505092915050565b600061185b82611a9d565b6118658185611ab3565b9350611875818560208601611b04565b61187e81611b37565b840191505092915050565b60006101608301600083015184820360008601526118a78282611850565b915050602083015184820360208601526118c18282611850565b915050604083015184820360408601526118db8282611850565b915050606083015184820360608601526118f58282611850565b9150506080830151848203608086015261190f8282611850565b91505060a083015184820360a08601526119298282611850565b91505060c083015184820360c08601526119438282611850565b91505060e083015184820360e086015261195d8282611850565b9150506101008301518482036101008601526119798282611850565b9150506101208301518482036101208601526119958282611850565b9150506101408301516119ac6101408601826119c6565b508091505092915050565b6119c081611adb565b82525050565b6119cf81611ae5565b82525050565b60006119e1828461181f565b915081905092915050565b6000602082019050611a016000830184611810565b92915050565b60006020820190508181036000830152611a218184611889565b905092915050565b6000602082019050611a3e60008301846119b7565b92915050565b6000604051905081810181811067ffffffffffffffff82111715611a6757600080fd5b8060405250919050565b600067ffffffffffffffff821115611a8857600080fd5b601f19601f8301169050602081019050919050565b600081519050919050565b600081519050919050565b600082825260208201905092915050565b600081905092915050565b60008115159050919050565b6000819050919050565b600063ffffffff82169050919050565b82818337600083830152505050565b60005b83811015611b22578082015181840152602081019050611b07565b83811115611b31576000848401525b50505050565b6000601f19601f8301169050919050565b611b5181611ae5565b8114611b5c57600080fd5b5056fea365627a7a72315820a9567b3b1365a4e4c60bcaf2e20faa50fe90f6926da80da5bfbb5decd63f32e86c6578706572696d656e74616cf564736f6c63430005100040",
  "source": "pragma solidity >0.5.2;\npragma experimental ABIEncoderV2;\n\ncontract OASIS {\n    struct account {\n        string userid;\n        string name;\n        string providerkey;\n        string password;\n        string email;\n        string title;\n        string firstname;\n        string lastname;\n        string dob;\n        string playeraddr;\n        uint32 karma;\n    }\n\n    account[] private accounts;\n    uint256 public totalAccounts;\n\n    constructor() public {\n        totalAccounts = 0;\n    }\n\n    function createAccount(\n        string memory userid,\n        string memory name,\n        string memory providerkey,\n        string memory password,\n        string memory email,\n        string memory title,\n        string memory firstname,\n        string memory lastname,\n        string memory dob,\n        string memory playeraddr,\n        uint32 karma\n    ) public returns (uint256) {\n        account memory newAccount = account(\n            userid,\n            name,\n            providerkey,\n            password,\n            email,\n            title,\n            firstname,\n            lastname,\n            dob,\n            playeraddr,\n            karma\n        );\n        accounts.push(newAccount);\n        totalAccounts++;\n        return totalAccounts;\n    }\n\n    function updateAccount(\n        string memory userid,\n        string memory name,\n        string memory providerkey,\n        string memory password,\n        string memory email,\n        string memory title,\n        string memory firstname,\n        string memory lastname,\n        string memory dob,\n        string memory playeraddr,\n        uint32 karma\n    ) public returns (bool) {\n        for (uint256 i = 0; i < totalAccounts; i++) {\n            if (compareString(accounts[i].userid, userid)) {\n                accounts[i].name = name;\n                accounts[i].providerkey = providerkey;\n                accounts[i].password = password;\n                accounts[i].email = email;\n                accounts[i].title = title;\n                accounts[i].firstname = firstname;\n                accounts[i].lastname = lastname;\n                accounts[i].dob = dob;\n                accounts[i].playeraddr = playeraddr;\n                accounts[i].karma = karma;\n                return true;\n            }\n        }\n        return false;\n    }\n\n    function deleteAccount(string memory userid) public returns (bool) {\n        require(totalAccounts > 0);\n        for (uint256 i = 0; i < totalAccounts; i++) {\n            if (compareString(accounts[i].userid, userid)) {\n                accounts[i] = accounts[totalAccounts - 1];\n                delete accounts[totalAccounts - 1];\n                totalAccounts--;\n                return true;\n            }\n        }\n        return false;\n    }\n\n    function getAccountParameter(string memory userid)\n        public\n        view\n        returns (account memory)\n    {\n        require(totalAccounts > 0);\n        for (uint256 i = 0; i < totalAccounts; i++) {\n            if (compareString(accounts[i].userid, userid)) {\n                return accounts[i];\n            }\n        }\n    }\n\n    function getAccountCount() public view returns (uint256 count) {\n        return accounts.length;\n    }\n\n    function compareString(string memory first, string memory second)\n        public\n        pure\n        returns (bool)\n    {\n        return\n            bool(\n                keccak256(abi.encodePacked(first)) ==\n                    keccak256(abi.encodePacked(second))\n            );\n    }\n}\n",
  "sourcePath": "/Volumes/Work/Blockchain/Our-World-OASIS-API-HoloNET-HoloUnity-And-.NET-HDK/NextGenSoftware.OASIS.API.Providers.EthereumOASIS/SmartContracts/contracts/OASIS.sol",
  "compiler": {
    "name": "solc",
    "version": "0.5.16+commit.9c3226ce.Emscripten.clang"
  },
  "schemaVersion": "3.2.4",
  "updatedAt": "2020-09-11T15:56:09.170Z",
  "devdoc": {
    "methods": {}
  },
  "userdoc": {
    "methods": {}
  }
}